{
    "contractName": "SupplyChain",
    "abi": [
        {
            "inputs": [],
            "stateMutability": "payable",
            "type": "constructor"
        },
        {
            "anonymous": false,
            "inputs": [
                {
                    "indexed": false,
                    "internalType": "uint256",
                    "name": "upc",
                    "type": "uint256"
                }
            ],
            "name": "ForSale",
            "type": "event"
        },
        {
            "anonymous": false,
            "inputs": [
                {
                    "indexed": false,
                    "internalType": "uint256",
                    "name": "upc",
                    "type": "uint256"
                }
            ],
            "name": "Harvested",
            "type": "event"
        },
        {
            "anonymous": false,
            "inputs": [
                {
                    "indexed": false,
                    "internalType": "uint256",
                    "name": "upc",
                    "type": "uint256"
                }
            ],
            "name": "Packed",
            "type": "event"
        },
        {
            "anonymous": false,
            "inputs": [
                {
                    "indexed": false,
                    "internalType": "uint256",
                    "name": "upc",
                    "type": "uint256"
                }
            ],
            "name": "Processed",
            "type": "event"
        },
        {
            "anonymous": false,
            "inputs": [
                {
                    "indexed": false,
                    "internalType": "uint256",
                    "name": "upc",
                    "type": "uint256"
                }
            ],
            "name": "Purchased",
            "type": "event"
        },
        {
            "anonymous": false,
            "inputs": [
                {
                    "indexed": false,
                    "internalType": "uint256",
                    "name": "upc",
                    "type": "uint256"
                }
            ],
            "name": "Received",
            "type": "event"
        },
        {
            "anonymous": false,
            "inputs": [
                {
                    "indexed": false,
                    "internalType": "uint256",
                    "name": "upc",
                    "type": "uint256"
                }
            ],
            "name": "Shipped",
            "type": "event"
        },
        {
            "anonymous": false,
            "inputs": [
                {
                    "indexed": false,
                    "internalType": "uint256",
                    "name": "upc",
                    "type": "uint256"
                }
            ],
            "name": "Sold",
            "type": "event"
        },
        {
            "inputs": [
                {
                    "internalType": "uint256",
                    "name": "_upc",
                    "type": "uint256"
                }
            ],
            "name": "buyItem",
            "outputs": [],
            "stateMutability": "payable",
            "type": "function"
        },
        {
            "inputs": [
                {
                    "internalType": "uint256",
                    "name": "_upc",
                    "type": "uint256"
                }
            ],
            "name": "fetchItemBufferOne",
            "outputs": [
                {
                    "internalType": "uint256",
                    "name": "itemSKU",
                    "type": "uint256"
                },
                {
                    "internalType": "uint256",
                    "name": "itemUPC",
                    "type": "uint256"
                },
                {
                    "internalType": "address",
                    "name": "ownerID",
                    "type": "address"
                },
                {
                    "internalType": "address",
                    "name": "originFarmerID",
                    "type": "address"
                },
                {
                    "internalType": "string",
                    "name": "originFarmName",
                    "type": "string"
                },
                {
                    "internalType": "string",
                    "name": "originFarmInformation",
                    "type": "string"
                },
                {
                    "internalType": "string",
                    "name": "originFarmLatitude",
                    "type": "string"
                },
                {
                    "internalType": "string",
                    "name": "originFarmLongitude",
                    "type": "string"
                }
            ],
            "stateMutability": "view",
            "type": "function"
        },
        {
            "inputs": [
                {
                    "internalType": "uint256",
                    "name": "_upc",
                    "type": "uint256"
                }
            ],
            "name": "fetchItemBufferTwo",
            "outputs": [
                {
                    "internalType": "uint256",
                    "name": "itemSKU",
                    "type": "uint256"
                },
                {
                    "internalType": "uint256",
                    "name": "itemUPC",
                    "type": "uint256"
                },
                {
                    "internalType": "uint256",
                    "name": "productID",
                    "type": "uint256"
                },
                {
                    "internalType": "string",
                    "name": "productNotes",
                    "type": "string"
                },
                {
                    "internalType": "uint256",
                    "name": "productPrice",
                    "type": "uint256"
                },
                {
                    "internalType": "uint256",
                    "name": "itemState",
                    "type": "uint256"
                },
                {
                    "internalType": "address",
                    "name": "distributorID",
                    "type": "address"
                },
                {
                    "internalType": "address",
                    "name": "retailerID",
                    "type": "address"
                },
                {
                    "internalType": "address",
                    "name": "consumerID",
                    "type": "address"
                }
            ],
            "stateMutability": "view",
            "type": "function"
        },
        {
            "inputs": [
                {
                    "internalType": "uint256",
                    "name": "_upc",
                    "type": "uint256"
                },
                {
                    "internalType": "address",
                    "name": "_originFarmerID",
                    "type": "address"
                },
                {
                    "internalType": "string",
                    "name": "_originFarmName",
                    "type": "string"
                },
                {
                    "internalType": "string",
                    "name": "_originFarmInformation",
                    "type": "string"
                },
                {
                    "internalType": "string",
                    "name": "_originFarmLatitude",
                    "type": "string"
                },
                {
                    "internalType": "string",
                    "name": "_originFarmLongitude",
                    "type": "string"
                },
                {
                    "internalType": "string",
                    "name": "_productNotes",
                    "type": "string"
                }
            ],
            "name": "harvestItem",
            "outputs": [],
            "stateMutability": "nonpayable",
            "type": "function"
        },
        {
            "inputs": [],
            "name": "kill",
            "outputs": [],
            "stateMutability": "nonpayable",
            "type": "function"
        },
        {
            "inputs": [
                {
                    "internalType": "uint256",
                    "name": "_upc",
                    "type": "uint256"
                }
            ],
            "name": "packItem",
            "outputs": [],
            "stateMutability": "nonpayable",
            "type": "function"
        },
        {
            "inputs": [
                {
                    "internalType": "uint256",
                    "name": "_upc",
                    "type": "uint256"
                }
            ],
            "name": "processItem",
            "outputs": [],
            "stateMutability": "nonpayable",
            "type": "function"
        },
        {
            "inputs": [
                {
                    "internalType": "uint256",
                    "name": "_upc",
                    "type": "uint256"
                }
            ],
            "name": "purchaseItem",
            "outputs": [],
            "stateMutability": "nonpayable",
            "type": "function"
        },
        {
            "inputs": [
                {
                    "internalType": "uint256",
                    "name": "_upc",
                    "type": "uint256"
                }
            ],
            "name": "receiveItem",
            "outputs": [],
            "stateMutability": "nonpayable",
            "type": "function"
        },
        {
            "inputs": [
                {
                    "internalType": "uint256",
                    "name": "_upc",
                    "type": "uint256"
                },
                {
                    "internalType": "uint256",
                    "name": "_price",
                    "type": "uint256"
                }
            ],
            "name": "sellItem",
            "outputs": [],
            "stateMutability": "nonpayable",
            "type": "function"
        },
        {
            "inputs": [
                {
                    "internalType": "uint256",
                    "name": "_upc",
                    "type": "uint256"
                }
            ],
            "name": "shipItem",
            "outputs": [],
            "stateMutability": "nonpayable",
            "type": "function"
        }
    ],
    "bytecode": "6080604052600080546001600160a01b0319163317905560016002819055805561056a8061002e6000396000f3fe60806040526004361061009c5760003560e01c8063a26be99911610064578063a26be999146100d7578063bdd8a6a81461018b578063d38ea5bf146100d7578063e7fb74c7146101ab578063f30fc480146100d7578063f61c899a146100d757600080fd5b80632d923561146100a157806341c0e1b5146100c257806349dae766146100d757806366225ff9146100f557806377c4591314610145575b600080fd5b3480156100ad57600080fd5b506100c06100bc3660046101f6565b5050565b005b3480156100ce57600080fd5b506100c06101b9565b3480156100e357600080fd5b506100c06100f2366004610218565b50565b34801561010157600080fd5b50610127610110366004610218565b506000908190819060609082908190819081908190565b60405161013c9998979695949392919061027e565b60405180910390f35b34801561015157600080fd5b50610177610160366004610218565b600080600080606080606080919395975091939597565b60405161013c9897969594939291906102de565b34801561019757600080fd5b506100c06101a6366004610422565b6101dc565b6100c06100f2366004610218565b6000546001600160a01b03163314156101da576000546001600160a01b0316ff5b565b6002546101ea90600161050e565b60025550505050505050565b6000806040838503121561020957600080fd5b50508035926020909101359150565b60006020828403121561022a57600080fd5b5035919050565b6000815180845260005b818110156102575760208185018101518683018201520161023b565b81811115610269576000602083870101525b50601f01601f19169290920160200192915050565b60006101208b83528a60208401528960408401528060608401526102a48184018a610231565b6080840198909852505060a08101949094526001600160a01b0392831660c085015290821660e08401521661010090910152949350505050565b888152602081018890526001600160a01b038781166040830152861660608201526101006080820181905260009061031883820188610231565b905082810360a084015261032c8187610231565b905082810360c08401526103408186610231565b905082810360e08401526103548185610231565b9b9a5050505050505050505050565b80356001600160a01b038116811461037a57600080fd5b919050565b634e487b7160e01b600052604160045260246000fd5b600082601f8301126103a657600080fd5b813567ffffffffffffffff808211156103c1576103c161037f565b604051601f8301601f19908116603f011681019082821181831017156103e9576103e961037f565b8160405283815286602085880101111561040257600080fd5b836020870160208301376000602085830101528094505050505092915050565b600080600080600080600060e0888a03121561043d57600080fd5b8735965061044d60208901610363565b9550604088013567ffffffffffffffff8082111561046a57600080fd5b6104768b838c01610395565b965060608a013591508082111561048c57600080fd5b6104988b838c01610395565b955060808a01359150808211156104ae57600080fd5b6104ba8b838c01610395565b945060a08a01359150808211156104d057600080fd5b6104dc8b838c01610395565b935060c08a01359150808211156104f257600080fd5b506104ff8a828b01610395565b91505092959891949750929550565b6000821982111561052f57634e487b7160e01b600052601160045260246000fd5b50019056fea264697066735822122076a0f1151af06dd656f9bfbd19d6a33de0f6cc79f00fa1afaa6426b42d73a5fa64736f6c634300080a0033",
    "sourcePath": "/Users/elmanhasa/my-sources/nd1309-Project-6b-Example-Template/project-6/contracts/coffeebase/SupplyChain.sol",
    "compiler": {
        "name": "solc",
        "version": "0.8.10+commit.fc410830"
    },
    "functionHashes": {
        "buyItem(uint256)": "e7fb74c7",
        "fetchItemBufferOne(uint256)": "77c45913",
        "fetchItemBufferTwo(uint256)": "66225ff9",
        "harvestItem(uint256,address,string,string,string,string,string)": "bdd8a6a8",
        "kill()": "41c0e1b5",
        "packItem(uint256)": "f30fc480",
        "processItem(uint256)": "49dae766",
        "purchaseItem(uint256)": "d38ea5bf",
        "receiveItem(uint256)": "a26be999",
        "sellItem(uint256,uint256)": "2d923561",
        "shipItem(uint256)": "f61c899a"
    },
    "gasEstimates": {
        "creation": {
            "codeDepositCost": "277200",
            "executionCost": "68744",
            "totalCost": "345944"
        },
        "external": {
            "buyItem(uint256)": "253",
            "fetchItemBufferOne(uint256)": "infinite",
            "fetchItemBufferTwo(uint256)": "infinite",
            "harvestItem(uint256,address,string,string,string,string,string)": "infinite",
            "kill()": "32021",
            "packItem(uint256)": "299",
            "processItem(uint256)": "256",
            "purchaseItem(uint256)": "255",
            "receiveItem(uint256)": "211",
            "sellItem(uint256,uint256)": "237",
            "shipItem(uint256)": "321"
        }
    }
}